:04000000020049327F
:01000B0032C2
:0100130032BA
:01001B0032B2
:0100230032AA
:01002B0032A2
:01003300329A
:01003B003292
:030043000200BDFB
:0300BA00020046FB
:030046000200FCB9
:1000BD00C021C0E0C0F0C082C083C007C006C0052B
:1000CD00C004C003C002C001C000C0D075D0001272
:1000DD0007EAD0D0D000D001D002D003D004D00593
:1000ED00D006D007D083D082D0F0D0E0D0213275A9
:1000FD00A15575A1AA53B9F843B90575A100900092
:10010D000A1201B55397FE5396FE5397FD5396FD74
:10011D005393FD5392FD120887C2B35396F743973D
:10012D000830B01A7582DA1202647582DA1202F2A0
:10013D007508007509007582FF1201F380E330B177
:10014D001A7582D91202647582D91202F27508FFEE
:10015D007509007582001201F380C6309117900960
:10016D001175F0801203907508007509FF758200F6
:10017D001201F380AC75080075090075820012013B
:09018D00F39000281201B58098DE
:10091100556E697420456C656374726F6E6963739B
:0109210000D5
:10019600AE82AF83EE4F6016E5A104F5A1E5A1049A
:1001A600F5A1E5A104F5A11EBEFF011F80E622AE62
:1001B60082AF83EE4F60159003E8C007C0061201B8
:0D01C60096D006D0071EBEFF011F80E72265
:1001D400C007AF82DFFED007227F08C58233D2B3C7
:1001E40092B3000000000000C2B30000DFEF22AFB2
:1001F40082850882C0071201DDD0078F821201DDDB
:100204008509820201DDE582FF23235403FE53079F
:100214003FAD0A8DF005F0EF800225E0D5F0FBFF3D
:100224008DF005F0743F800225E0D5F0FB8F04C308
:100234009CFDBE0002800ABE0102800FBE02208027
:10024400148F087509008D820201F38D088F0975DA
:1002540082000201F37508008D098F820201F322E6
:10005C009001007401F0900101E4F0900102F09025
:10006C000103F0900104F0900105F0900106F0906E
:10007C000107F09001087402F0900109E4F090017E
:10008C000AF090010B7403F090010CE4F090010D58
:10009C00F090010EF090010FF09001107404F090AC
:0C00AC000111E4F0900112F0900113F03B
:10026400AF82BF880040088F06EE2478FE8040BF2E
:1002740080004023900101E0FD8F04EC2480F5F020
:1002840005F07401800225E0D5F0FBFC42059001E5
:1002940001EDF07E008018EF90092293FE70012298
:1002A400EE30E70B900101E04402FFF053067F7F3C
:1002B40003EF2400F582E43401F583E0FDB5060183
:1002C400220FBF080040EA7F03EF2400FCE434015E
:1002D400FD8C828D83E0700F8C828D83EEF075131C
:1002E4000890010002088E0FBF080040DC22AF8294
:1002F400BF880040088F06EE2478FE8041BF80004E
:100304004024900101E0FD8F04EC2480F5F005F019
:100314007401800225E0D5F0FBF4FC520590010144
:10032400EDF07E008018EF90092293FE700122EE1A
:1003340030E70B900101E054FDFFF053067F7F038B
:10034400EF2400FCE43401FD8C828D83E0B50606C5
:100354008C828D83E4F00FBF080040E4751308908D
:10036400010002088EAF82C007120264D0078F8298
:100374000202F27F07EF2400F582E43401F583E4FE
:10038400F0DFF275130890010002088EAD82AE838F
:10039400AFF08D828E838FF01208F1FC60188C828E
:1003A4000DBD00010EC007C006C005120369D005CB
:1003B400D006D00780DC22AF82900109EFF07513DC
:1003C4000390010802088E900109E4F0751303906C
:1003D400010802088E1203BB0203CBAF8290010C0A
:1003E400E0420790010CEFF075130590010B020831
:1003F4008EAF8290010CE0FEEFF4520690010CEEF9
:10040400F075130590010B02088EAF8290010DEF79
:10041400F0AF0B90010EEFF075130590010B12086D
:100424008E90010DE4F090010EF022AF8290010F46
:10043400EFF075130590010B12088E90010FE4F094
:1004440022AF82900111E04207900111EFF0751381
:100454000490011002088EAF82900111E0FEEFF4C7
:100464005206900111EEF075130490011002088EEB
:10047400AF82900112EFF0AF0C900113EFF07513FF
:070484000490011002088E34
:1009220000000000000000002A2B28000000000048
:1009320000000000000000000000000000000000B5
:100942002C9EB4A0A1A2A434A6A7A5AE362D3738FA
:10095200271E1F20212223242526B333B62EB7B803
:100962009F8485868788898A8B8C8D8E8F909192C1
:10097200939495969798999A9B9C9D2F3130A3AD0D
:10098200350405060708090A0B0C0D0E0F1011128B
:10099200131415161718191A1B1C1DAFB1B0B50088
:1009A2001201100100000008891190880001010263
:1009B200030109022900010100804B090400000221
:1009C2000301010409211001210122BF0007058151
:1009D200030800010705020308000A05010906A130
:1009E200018501050719E029E71500250175019523
:1009F200088102750895018103190029E71500266F
:100A0200FF007508950581000508190129051500E3
:100A12002501750195059102750395019103C005A4
:100A22000C0901A101850219002A3C021500263C8D
:100A320002751095018100C005010902A101090199
:100A4200A100850305091901290315002501750176
:100A5200950381027505950181030501093009316C
:100A620009381581257F750895038106C0C00501E7
:100A72000905A101A100850405091901290815002C
:100A82002501750195088102050109300931158199
:100A9200257F750895028102C0C0BF040309041CAA
:100AA20003670065006E0065007200690063006400
:100AB20000650076006900630065001A034800497A
:100AC20000440020004B006500790062006F006165
:100AD2000072006400140343004800350035003200
:100AE2000078004800490044001A034800490044C5
:100AF200002D004B006500790062006F00610072FA
:030B02000064008C
:10048B00C007AF8205A290000015A28511828512CC
:10049B0083E493A3A5DFFAD00722AFDBBF0802806A
:1004AB0003020763900007E0FE7F00900006E0FD6B
:1004BB007C004FF50DEC4EF50E7F00900001E0F542
:1004CB000F900000E0FE546060057FFF020765E5BA
:1004DB000F24F4500302075FE50F240B83F582E52D
:1004EB000F241083F583E473412F5FA05FFE0B5F36
:1004FB000B266565070607060705050706060707AA
:10050B00900003E0FEBE01028012BE02028017BE05
:10051B000302801CBE220280690205A57511A2751B
:10052B0012097F1280767511B47512097F29806CC0
:10053B00900002E0FE24FB4038EE2E90054A7380BB
:10054B0008800E8014801A802075119D75120A8008
:10055B00267511A175120A801E7511BD75120A80C0
:10056B00167511D775120A800E7511EB75120A806C
:10057B00067511D775120A851182851283E493FFD4
:10058B00801A900002E0700E7511DD751209900A49
:10059B009CE493FF80067FFF80027FFFBFFF030277
:1005AB0007658F057E00C3ED950DEE950E50048DFE
:1005BB000D8E0EAD0DAE0EC3ED9408EE94009200B1
:1005CB0040067D087E008004AD0DAE0E8D078F8238
:1005DB0012048B8F057E00AB0DAC0EEBC39DFBECB9
:1005EB009EFC8B0D8C0EEF2511F511E43512F512D7
:1005FB00020765900002E0FE8E0D750E0002076586
:10060B00900000E510F0AD0DAE0EC3ED9401EE942D
:10061B000050030207657F01020765900002E0F5B9
:10062B0010020765900000E0541F702F900003E04C
:10063B00FD7E00900002E0FC7B004206EB4205BE13
:10064B000114BD00119009BBE493FE30E5030207D2
:10065B00657FFF0207657FFF020765900000E0FEE4
:10066B0053061F7D00BE0228BD0025900004E0FE4E
:10067B00BE02028005BE8113800653D47302076548
:10068B0074BC55D24402F5D20207657FFF020765A1
:10069B007FFF020765900000E0541F702F9000034E
:1006AB00E0FD7E00900002E0FC7B004206EB420581
:1006BB00BE0114BD00119009BBE493FE30E50302AB
:1006CB0007657FFF0207657FFF020765900000E06B
:1006DB00FE53061F7D00BE0259BD0056900003E07D
:1006EB00FD7E00900002E0FC7B004206EB4205EE33
:1006FB004D703B900005E0FD7E00900004E0FC7B1C
:10070B00004206EB4205BE0205BD00028008BE8119
:10071B0019BD0016800A747F55D4440CF5D4803A69
:10072B0074BF55D24403F5D280307FFF802C7FFFFE
:10073B0080287FFF8024900000E4F0900001F0AD52
:10074B000DAE0EC3ED9402EE940040047F02800ABE
:10075B00AF0D80067FFF80027FFFBFFF07750FFF86
:10076B0075DCCF22EF24F740068FDD75DCC02275D8
:10077B00DD0075DCC0227405B50F0280467406B52A
:10078B000F4FAE0DAF0EC3EE9408EF9400920140E5
:10079B00067E087F008004AE0DAF0E8E8212048B96
:1007AB008E057F00AB0DAC0EEBC39DFBEC9FFC8B62
:1007BB000D8C0EEE2511F511E43512F5128EDD635D
:1007CB00DC4022E5E35480FFE50D4FF5E375DC02D9
:1007DB002275DD0075DC022275DD0043DC02223060
:1007EB00D95CE5D9540FFFADD95305307E00BD0060
:1007FB0005BE00028018BD1005BE0002803EBD2064
:10080B0005BE0002801CBD3033BE00308028BF0007
:10081B00028005BF022680051207E3801F1208F035
:10082B00801ABF00028005BF01128005120781806C
:10083B000B1208E28006BF00031204A5C2D930D800
:10084B000F75DC021208D975E300C2DAC2D9C2D81F
:10085B0010DA0122E5DA20E20375D8FF2275E229CE
:10086B0075D181E4F5ECF5ED75DC021208C043E1BE
:0C087B000743D81FD2EAD2AF75DD00227F
:0200B800C20282
:1008870012086875D30022AE82AF832002FD7D0077
:10089700C3ED9513501AED240AFBE43400FCED2E4A
:1008A700F582E43FF583E0FA8B828C83F00D80E0DC
:1008B7008513D3D20253D2FC2275EE0A75EF007569
:1008C700E41475E50075D21275D41075EA4075EB1E
:1008D700082275D21275D410C2022275D30074FC97
:0A08E70055D24402F5D2C2022222CB
:06005600E478FFF6D8FD7E
:0D00490075812112090DE582600302004659
:1008F10020F71430F6148883A88220F507E6A88330
:1009010075830022E280F7E49322E02275820022BF
:00000001FF
