:04000000020049327F
:01000B0032C2
:0100130032BA
:01001B0032B2
:0100230032AA
:01002B0032A2
:01003300329A
:01003B003292
:030043000200CAEE
:10005C00782D7600782E7600782FE4F608F6783135
:09006C00760078327604020046A9
:030046000206436C
:1000750075E20053E27F43E22975E30053E2BF5383
:10008500D1FB75D18043D1012243E10443E1024311
:10009500E10143E18043D81FD2EAD2AF227E407FFF
:1000A500018EEE8FEF7E807F018EE48FE575EB0884
:1000B50075D41075D2127E007F018EEC8FED75EA36
:1000C5004075DC0222C021C0E0C0F0C082C083C000
:1000D50007C006C005C004C003C002C001C000C0FF
:1000E500D075D00020D9030205DD743F55D9FFFE38
:1000F500BE00030205D5BF02028048BF1002801D65
:10010500BF11028018BF12028013BF200302055AD7
:10011500BF2102801CBF300280420205DB782F869A
:1001250006088607782F74012EF6E43F08F60205C7
:10013500DB75D30074FC55D24402F5D278317600D4
:100145000205DB20DE030205DB782DA6DB782E76A3
:100155000074F355D44408F5D40205DBAEDB7F000B
:10016500BE0805BF0002800302052A900107E0FED4
:100175007F00900106E07C004FF508EC4EF5097E06
:10018500007F008F0D900101E0F50A900100E0FD70
:100195005305607C00BD4005BC000280030202429D
:1001A500750D01E50845097022E50A24FB50030297
:1001B500052EE50A75F003A49001C17302052E0210
:1001C500052E02052E02052E02052E7405B50A021E
:1001D500803A7409B50A0280467490B50A4F9001B9
:1001E50004E025E0FD9009D293900100F07C000D1C
:1001F500BD00010CED24D2F582EC3409F583E493BE
:10020500FD900101F07E027F0002052E9001007431
:1002150031F09001017460F07E027F0002052E909E
:1002250001027832E0F67E007F0002052E90010083
:10023500E4F0900101F07E027F0002052E9001009E
:10024500E0FD54606003020524E50A24F55003022D
:10025500051EE50A240B83F582E50A240F83F58341
:10026500E473FC981E131E657D1E728F2E04030514
:100275000405030205030305900103E0FDBD01022A
:10028500800ABD02028014BD0372801E750FC07501
:1002950010097511807C127D008065750F527510EF
:1002A5000A7511807C207D008056900102E0700F58
:1002B500750F7275100A7511807C047D0080419060
:1002C5000102E0FBBB010F750FA8751009751180C0
:1002D5007C187D00802A900102E0FBBB020F750FA0
:1002E500947510097511807C147D008013750F7647
:1002F50075100A7511807C127D0080047CFF7D00DD
:10030500C3EC9508ED950950048C088D09AC08AD32
:1003150009C3EC9408ED9400920040067C087D002A
:100325008004AC08AD098C068D07850F2285102346
:100335008511248E258F2690010075F000C007C019
:1003450006120904D006D007E508C39EF508E5099D
:100355009FF509EE250FF50FEF3510F51002052E67
:10036500900102E0FD8D0875090002052E9001003F
:10037500E50CF0AC08AD09C3EC9401ED9400500315
:1003850002052E7E017F0002052E900102E0F50C8C
:1003950002052E900100E0541F7033900103E0FC2C
:1003A5007D00900102E0FB7A004205EA4204BD01AE
:1003B50016BC0013900A59E493FD30E50302052E9F
:1003C5007EFF7F0002052E7EFF7F0002052E900135
:1003D50000E0FD53051F7C00BD022CBC00299001E7
:1003E50004E0FDBD02028005BD8111800553D47373
:1003F500800E74BC55D24402F5D280047EFF7F0086
:100405007831760002052E7EFF7F0002052E9001D1
:1004150000E0541F704D900103E0FC7D0090010247
:10042500E0FB7A004205EA4204BD0130BC002D9094
:100435000A59E493FD30E51DE5A220E7FB75A155BA
:1004450075A1AA75A9C143870275A15575A1AA759C
:10045500A90002052E7EFF7F0002052E7EFF7F008C
:1004650002052E900100E0FD53051F7C00BD02052D
:10047500BC00028002807A900103E0FC7D009001BF
:1004850002E0FB7A004205EA4204ED4C705D900102
:1004950005E0FC7D00900104E0FB7A004205EA429C
:1004A50004BD0105BC00028034BD0205BC0002800C
:1004B50018BD8105BC0002801ABD8229BC002674C6
:1004C500BF55D44403F5D48060747F55D4440CF5EE
:1004D500D4805674BF55D24403F5D2804C747F55F1
:1004E500D2440CF5D27EFF7F00803E7EFF7F0080E8
:1004F500387EFF7F008032900100E4F0900101F02A
:10050500AC08AD09C3EC9402ED940040067E027F71
:10051500008016AE08AF0980107EFF7F00800A7E3E
:10052500FF7F0080047EFF7F008E048F05BCFF0CDB
:10053500BD0009750AFF75DCCF0205DBC374089C95
:10054500E49D40088EDD75DCC00205DB75DD0075B8
:10055500DCC00205DB7405B50A0280587406B50ACD
:1005650067AE08AF09C3EE9408EF94009200400609
:100575007E087F008004AE08AF09850F2285102311
:100585008511248E258F2690010075F000C007C0C7
:1005950006120904D006D007E508C39EF508E5094B
:1005A5009FF509EE250FF50FEF3510F5108EDD637C
:1005B500DC408022E50D701EE5E35480FFE508FE72
:1005C5004FF5E375DC02800E75DD0075DC028006F3
:1005D50075DD0085DCDCC2D930D81D75DC0275D22D
:1005E5001275D41075E300C2DAC2D9C2D8782D7657
:1005F50000750C007831760010DA028021E5DA30DA
:10060500E21FE5A220E7FB75A15575A1AA75A9C151
:1006150043870275A15575A1AA75A900800375D8F0
:10062500FFD0D0D000D001D002D003D004D005D067
:1006350006D007D083D082D0F0D0E0D021327F0021
:100645008F1AE4F51BF51C75A15575A1AA53B97848
:1006550043B94575A100900005C0071208E61200D0
:10066500751200A212008ED00753925D439240434B
:1006750093E25396FB439704D29675DD0075D3003C
:100685009001407431F09001417460F07833760048
:1006950078347600750E01D291E50C60FC7B00780C
:1006A5002DE670030206D2C007C0E005A2900080C7
:1006B50015A2900180852D07E0A3A5D507FAD0E006
:1006C500D00753D4F3782D8603782D76007A00C3AE
:1006D500EA9B4003020800EA2480F582E43400F531
:1006E50083E0F5A00AEF7055A2A7E433FDA2A6E4C6
:1006F50033F51AED6007E5A0543FFF80D2E51A6097
:1007050029A2A5B39291A2A49295A2A192B2A2A068
:10071500929778338682758300A296E433FDF0784C
:1007250033067833E6547FF680A5A2A5B39291A24D
:10073500A49295A2A192B2A2A0929780921FE51AC7
:100745006076A2A09295A29692A0D297C297A2A1F6
:100755009295A29692A1D297C297A2A29295A2969D
:1007650092A2D297C297A2A39295A29692A3D2974C
:10077500C297A2A49295A29692A4D297C297A2A537
:100785009295A29692A5D297C297A2A69295A29665
:1007950092A6D297C297A2A79295A29692A7D29710
:1007A500C29778338682758300E5A0F078330678A2
:1007B50033E6547FF60206D4A2A09295D297C2974B
:1007C500A2A19295D297C297A2A29295D297C297CB
:1007D500A2A39295D297C297A2A49295D297C297B7
:1007E500A2A59295D297C297A2A69295D297C297A3
:1007F500A2A79295D297C2970206D47831E66003F4
:1008050002069E78337934E6C397FD30E706748097
:100815002DFC80028D048C05C374808DF063F080FF
:1008250095F0505BC3ED648094BE920140067B3E1B
:100835007C008006EDFB3395E0FC7835A6037D0052
:10084500C3ED9B502B8D040C0CEC3395E0FAEC2496
:1008550040FCEA3401FA78348682758300E0FE8C28
:10086500828A83F07834067834E6547FF60D80D09A
:100875007831760174022BF5D353D2FC02069E78AB
:100885002FE6C3951BFD08E6951CFE783286037C92
:1008950000C3EB9DEC9E5014782F861B08861C78B0
:1008A50031760175D30253D2FC02069EE50E700324
:1008B50002069E150E7831760175D30253D2FC02DD
:0208C500069E8D
:100994001203500072006F0067002D0046005000E3
:1009A40047004100180343006F0063006B006500BB
:1009B400740020004E006F007600610012010002F6
:1009C40000000008C016DC05000401020301000059
:1009D400FB090160000480E11C000002940EA218CF
:1009E400BA120E0341006C007400650072006100CD
:1009F40018035500530042002D0042006C006100B2
:100A0400730074006500720012034300300042005A
:100A140046004100360044003700020301005245FD
:100A2400564200000000000000000000000000002A
:100A340000000000000000000000000000000000B2
:100A4400000000000000000000000000B5B2090230
:100A5400200001010080E10904000002FFFFFF0003
:100A6400070581024000010705020240000104035A
:100A740009041203430030004200460041003600DE
:040A840044003700F3
:1008C700AE82AF83EE4F6016E5A104F5A1E5A10462
:1008D700F5A1E5A104F5A11EBEFF011F80E622AE2A
:1008E70082AF83EE4F60159003E8C007C006120879
:0D08F700C7D006D0071EBEFF011F80E722FC
:06005600E478FFF6D8FD7E
:10090400AD82AE83AFF08D278E288F2985222A856C
:10091400232B85242CA825A9268803890418B8FF2D
:100924000119EB4C6025852A82852B83852CF012D6
:100934000974FCA385822A85832B8D828E838FF094
:10094400EC120959A3AD82AE8380CE852782852817
:10095400838529F02220F71130F6138883A882209A
:10096400F509F6A8837583002280FEF280F5F02253
:0D004900758135120990E5826003020046C2
:1009740020F71430F6148883A88220F507E6A883AC
:1009840075830022E280F7E49322E022758200223C
:00000001FF
