:04000000020049327F
:01000B0032C2
:0100130032BA
:01001B0032B2
:0100230032AA
:01002B0032A2
:01003300329A
:01003B003292
:0300430002009028
:03008D0002004628
:030046000200CFE6
:10009000C021C0E0C0F0C082C083C007C006C00558
:1000A000C004C003C002C001C000C0D075D000129F
:1000B00008FFD0D0D000D001D002D003D004D005AA
:1000C000D006D007D083D082D0F0D0E0D0213275D6
:1000D000A15575A1AA53B9F843B90575A1009000BF
:1000E000051201DB1206015392FD4393025396F76A
:1000F0004397085396EF439710D2AF7E007F00C31B
:10010000EE940AEF64809480501E9011B475F080D4
:10011000C007C0061204EE9000641201DBD006D0C6
:10012000070EBE00DA0F80D790010BE060FAE4F50D
:1001300008F509C3E5089408E5096480948050E84F
:1001400074015508FC7D00E508035401FB7A00E5C5
:100150000803035401F9F87F00C001C004C005C0C2
:1001600003C002C000C00774B6C0E07411C0E074E0
:1001700080C0E0740AC0E07400C0E07440C0E012C7
:100180000A10E58124F4F58190000A75F04012040C
:10019000C3D001E96004D2918002C291E508035402
:1001A000016004D2B38002C2B3E50830E004D2B4E7
:1001B0008002C2B49003E81201DB0508E4B508022E
:0501C0000509020133F6
:0B11B4002E002564256425640D0A0050
:1001C500AE82AF83EE4F600D05A105A105A11EBE50
:1001D500FF011F80EF22AE82AF83EE4F6011E5C3B2
:1001E50030E7FBE5C320E7FB1EBEFF011F80EB22C6
:1001F5004396025397FD4396015397FE22AF827EA5
:1002050008EF30E706D2B1A2B18004C2B1A2B1D2E3
:10021500B080008000C2B01E8F05ED2DFFEE70E1AD
:10022500D2B180008000D2B080008000C2B022C26E
:10023500B18000C2B0020202D2B18000D2B0020287
:1002450034C2B18000D2B08000D2B122AF827E002C
:10025500D2B17D088E04EC2CFE8000D2B030B10303
:10026500430601C2B0DDEDEF6002C2B1800080003F
:10027500D2B080008000C2B08E8222AF82758278B3
:10028500C007120234758200120202D00774B02F23
:10029500F5821202027582001202027582101202A4
:1002A500020202461202807582781202347582407B
:1002B5001202027F80758200C007120202D007DF9A
:1002C500F40202467F008F82C0071202A9D0070FF1
:1002D500BF080040F1900102E0FF900100F090019D
:1002E50001E4F0EF2FFF74075FF5820202809001B1
:1002F50002E0F5821202A9900102E0FF0F74075F88
:10030500F07582781202347582001202027582D36A
:10031500120202900102E0C40354F8F582120202AF
:100325000202461201F575827812023475820012B6
:1003350002027F00EF90139F93F582C0071202021D
:10034500D0070FBF0B0040EC120246900102E4F00B
:100355000202C9AF827E00EF24E0FFEE34FFFEEF1C
:100365002FFCEE33FDEC2CFCED33FDEC2FFCED3ECC
:10037500FD758278C005C0041202347582401202F0
:1003850002D004D0058C068D077D05EE24BFF582CD
:10039500EF3411F5830EBE00010FE493F582C0071B
:1003A500C006C005120202D005D006D007DDDC75F7
:1003B5008200120202020246AF8253077FBF20006D
:1003C500403B8F82120358900101E02401F0E024A4
:1003D500EB400122900101E4F0900100E0FEBE0730
:1003E500051202F38006900100EE04F0900102E090
:1003F500FE900100E02E5407F582020280BF0A2913
:10040500900101E4F0900100E0FEBE07051202F341
:100415008006900100EE04F0900102E0FE900100DC
:10042500E02E5407F582020280BF0D16900101E40B
:10043500F0900102E0FF900100E02F5407F58202E1
:10044500028022AD82AE83AFF08D828E838FF01253
:100455001179FC60188C820DBD00010EC007C00625
:10046500C0051203BDD005D006D00780DC221204DA
:070475004875820A0203BD75
:1011BF00000000000000005F00000007000700149F
:1011CF007F147F14242A7F2A12231308646236495E
:1011DF005522500004030000001C22410000412250
:1011EF001C0014083E081408083E08080080600020
:1011FF0000080808080800606000002010080402BA
:10120F003E5149453E44427F40404261514946224A
:10121F00414949361814127F102F494949313E4927
:10122F004949320301710907364949493626494967
:10123F00493E003636000000806800000008142286
:10124F00001414141414002214080002015109068A
:10125F003E415D555E7C1211127C7F494949363EF5
:10126F00414141227F4141221C7F494949417F0928
:10127F000909013E4149493A7F0808087F41417FEA
:10128F0041412040413F017F081422417F404040AF
:10129F00407F020C027F7F0408107F3E4141413E98
:1012AF007F090909063E4141C1BE7F09192946261A
:1012BF004949493201017F01013F4040403F1F2012
:1012CF0040201F3F4038403F6314081463070870E5
:1012DF0008076151494543007F414100020408104E
:1012EF00200041417F000804020408404040404074
:1012FF00000003040020545454787F444444383889
:10130F0044444428384444447F385454541808FE05
:10131F0009010218A4A4A4787F0404047800447D72
:10132F0040000080847D00417F10284400417F40B1
:10133F00007C047C04787C040404783844444438EA
:10134F00FC2424241818242424FC7C0804040808F2
:10135F0054545420043F4440203C4040403C1C2007
:10136F0040201C3C4030403C44281028441CA0A086
:10137F00A07C4464544C4408083641410000FF00EF
:10138F000041413608080804081008FFFFFFFFFF5F
:0B139F00A83F8D142002DA12A1C8AF95
:10005C00C200900103E4F074C2A3F07401A3F0E4B5
:10006C00A3F0900107F0900108F09001097408F0DA
:10007C0090010AE4F090010BF090010CF090010D4E
:01008C00F083
:10047C0020001690010DE06010D20090010DE0F507
:10048C00D553D4FC90010DE4F022AF822000FD90F6
:10049C00010DE0FE04F07D0074402EFEE43DFDEE07
:1004AC002414F582ED3400F583EFF090010DE0FF9C
:1004BC00BF400302047C22AD82AE83AFF08D828EEE
:1004CC00838FF0121179FC60188C820DBD00010E27
:1004DC00C007C006C005120496D005D006D0078010
:1004EC00DC221204C375820A12049602047C900169
:1004FC000BE060FA90010CE0FF04F0EF2414F5829D
:10050C00E43400F583E0FF90010BE014FEF0EE7094
:10051C000353D4F38F82227E0A7F008EEE8FEF7E00
:10052C00147F008EE48FE575D21275D41275EB0C26
:10053C0075EA4075D30075D50090010BE4F0C2004C
:10054C0022AF14BF20028036BF21028005BF2232A9
:10055C0080207F008F057E00EF2403F582E43401B8
:10056C00F583E08D828E83F00FBF070040E6758225
:10057C000722900002E090010AF075820022758239
:10058C0000227582FF227420B5142D7F00C3E5DB99
:10059C009407920140047E078002AEDBC3EF9E50AD
:1005AC0017EF2403FDE43401FE8F82758300E0FC19
:1005BC008D828E83F00F80D575DC402274FC55D46F
:1005CC004402F5D4C2002230DE17E5DB601374F36D
:1005DC0055D44408F5D490010BE5DBF090010CE404
:0205EC00F022FB
:1013AA0012011001000000080912DD2700010102E4
:1013BA00030109024B000201008032080B000202FD
:1013CA0002010409040000010202010405240010BC
:1013DA000105240100000424020205240600010775
:1013EA0005810308000109040100020A000004073C
:1013FA0005020240000007058202400000040309BA
:10140A0004220355006E00690074002D0045006C2B
:10141A000065006300740072006F006E006900636B
:10142A000073001E035500530042005F004300444E
:10143A000043002D00530065007200690061006CD2
:10144A000038036700690074006800750062002EA6
:10145A000063006F006D002F0055006E0069007474
:10146A00002D0045006C0065006300740072006F77
:10147A00006E0069006300730016034300440043D2
:0F148A00002000530065007200690061006C00D3
:1005EE007E007F008EEC8FED75DC0275DD00C202A1
:1005FE0002052375E22975D1811205EE75E10775A5
:10060E00D81FD2EAD2AF22C0E0C007AF8205A290B7
:10061E00000015A2851A82851B83E493A3A5DFFA39
:10062E0085821A85831BD007D0E0227F00900007B9
:10063E00E0FD7E00900006E0FC7B004EF518EB4DD1
:10064E00F519900001E0F514900000E0F515E515A0
:10065E005460600302085FE514FE24F450030208A0
:10066E005BEEF5F0240B83F582E5F0241083F58321
:10067E00E4737F9F5BFA5B4E985B57747575070743
:10068E0008070807060807070808900003E0FEBEE3
:10069E000102800ABE0202800FBE03688014751A22
:1006AE00AA751B137F12805E751ABC751B137F4BC8
:1006BE008054900002E0FE24FB4038EE2E9006CFD0
:1006CE00738008800E8014801A8020751A07751B9F
:1006DE00148026751A0B751B14801E751A2D751B2A
:1006EE00148016751A4B751B14800E751A83751BA4
:1006FE00148006751A4B751B14851A82851B83E4AC
:10070E0093FF80027FFFBFFF030208758F057E00F7
:10071E00C3ED9518EE951950048D188E19AD18AEBF
:10072E0019C3ED9408EE9400920340067D087E00F6
:10073E008004AD18AE198D078F821206150208754A
:10074E00900002E0F517020875900000E516F0AD76
:10075E0018AE19C374019DE49E50067518017519E3
:10076E0000AF18020875900002E0F516D2020208DA
:10077E0075900000E4F0900001F0AD18AE19C3744E
:10078E00029DE49E5006751802751900AF180208F6
:10079E0075E515541F701E900002E0FEBE0111900B
:1007AE0013C3E493FE30E5030208757FFF0208755C
:1007BE007FFF020875AD1553051F7E00BD0228BED2
:1007CE000025900004E0FEBE02028005BE8213806A
:1007DE000653D47302087574BC55D44402F5D40282
:1007EE0008757FFF0208757FFF020875E515541F17
:1007FE007019900002E0FEBE010D9013C3E493FE4B
:10080E0020E5647FFF80607FFF805CAD1553051F80
:10081E007E00BD0234BE0031900002E070279000D1
:10082E0004E0FEBE02028005BE8216800A747F5569
:10083E00D4440CF5D4803074BF55D44403F5D48021
:10084E00267FFF80227FFF801E7FFF801A7FFF8022
:10085E0016AD155305607E00BD200ABE00071205B9
:10086E004DAF8280027FFFBFFF077514FF75DCCF8F
:10087E00228F057E00AB18AC19EBC39DFBEC9EFCE2
:10088E008B188C198FDD75DCC022AF14BF0502806A
:10089E003ABF0645AE18AF19C3EE9408EF94009216
:1008AE000440067E087F008004AE18AF198E8212B7
:1008BE0006158E057F00AB18AC19EBC39DFBEC9FA4
:1008CE00FC8B188C198EDD63DC4022E5E35480FF2F
:1008DE00E5174FF5E375DC822275DC8222AE1553E7
:1008EE0006607F00BE2006BF000302059275DC4045
:1008FE002230D94FE5D9540FFFADD95305307E00C4
:10090E00BD0005BE00028027BD2005BE0002800B83
:10091E00BD302EBE002B1206398026BF0002800588
:10092E00BF021E800512089880171205C88012BFDC
:10093E0000028005BF020A80051208EB8003120533
:10094E00D3C2D910DA02800030D8091205EE75E351
:05095E000075D81F2206
:06005600E478FFF6D8FD7E
:10096300C01C85811CC082058105810581E51C248D
:10097300FBF8A91C0909E6F708E609F708E609F7F1
:10098300A81C080886820886830886F0121179FA63
:10099300A3121179FBA3121179FF74012AFCE43B22
:1009A300FD8F06A81C080886820886830886F0EC5B
:1009B300121199A3ED121199A3EE1211998A828B48
:1009C300838FF0A81C08E6121199851C81D01C2284
:1009D30085822685832785F0287536267537007529
:1009E300384085223985233A85243B85253C900967
:1009F30063120AF6AE82AF83AB26AC27AD288B8297
:100A03008C838DF0E41211998E828F8322C01CE5B2
:100A130081F51C24F8FF8F3CE51C24FBFF8F367502
:100A23003700753840E51C24F8F8863908863A08FB
:100A3300863B900963120AF6AE82AF83E51C24FB62
:100A4300F886030886040886058B828C838DF0E480
:100A53001211998E828F83D01C22AF82C02CC02D9D
:100A6300C02E120A6A8007C02AC02B8F82221581EA
:100A7300158115810534E4B53402053522AF82743E
:100A8300302FFF24C6500B74072FFFE52960034363
:100A930007208F82020A5DE582FFC4540FF582C0EE
:100AA30007120A80D007740F5FF582020A808582DD
:100AB3001DAB2FAC30AD31AE32AA33751F208A0780
:100AC300EF2FF51EEE235401451EFAEB2BFBEC33FF
:100AD300FCED33FDEE33FEC3EA951D4008EAC395F2
:100AE3001DFA430301D51FD68B2F8C308D318E32E7
:100AF3008A332285822A85832B85362C85372D855B
:100B0300382EE4F534F535AD39AE3AAF3B8D828EF0
:100B1300838FF0121179FC74012DF539E43EF53A17
:100B23008F3BECFF700302113DBF250280030211CE
:100B330035E4F53DF53EF53FF540F541F542F54326
:100B4300F544F546F553F5547547FF7548FF853968
:100B53004D853A4E853B4F854D82854E83854FF0BB
:100B6300121179F550A385824D85834E854D3985C4
:100B73004E3A854F3B7425B55008855082120A5D65
:100B8300808574D025505068E55024C6406274FFB8
:100B9300B54736B5483385531D85541E90000A1258
:100BA300115C858251858352AA507E00EA2551FA51
:100BB300EE3552FEEA24D0F553EE34FFF554E553F7
:100BC30045547093753E01808E85471D85481E9060
:100BD300000A12115CAE82AB83AA507D00EA2EFE9E
:100BE300ED3BFBEE24D0F547EB34FFF548020B5AFF
:100BF300742EB5501574FFB54705B548028003023E
:100C03000B5AE4F547F548020B5A749F2550500ED2
:100C1300E550248540085350DF7529018003752969
:100C2300007420B55003020CC0742BB55003020CA2
:100C3300BA742DB5500280797442B55003020CC6C4
:100C43007443B55003020CD27444B55003020E56DC
:100C53007446B55003020E6D7448B55003020B5A27
:100C63007449B55003020E56744AB55003020B5A29
:100C7300744CB550028052744FB55003020E5E742B
:100C830050B55003020DEB7453B550028062745497
:100C9300B55003020B5A7455B55003020E637458D2
:100CA300B55003020E68745AB55003020B5A020E74
:100CB30072753D01020B5A753F01020B5A754001D3
:100CC300020B5A754201020B5A754301020B5AE596
:100CD30042600AE53C14F9893C8706800BE53C2415
:100CE300FEFB8B3C8B0187068E82120A5D020E800F
:100CF300E53C24FDFE8E3C8E0187020987030987AC
:100D03000619198A2F8B308E318A828B838EF012CB
:100D1300114485824D85834E74FFB54709B5480656
:100D2300854D47854E48E53D7037C3E54D9553E501
:100D33004E9554502CE553C3954DF551E554954EBE
:100D4300F552AA51AE52155174FFB551021552EA2C
:100D53004E6008758220120A5D80E78551538552E3
:100D630054AB47AE48852F828530838531F012110D
:100D730079FA8A4B6034C3E49B74808EF063F0800D
:100D830095F050261BBBFF011E854B82C006C00396
:100D9300120A5DD003D006AA2FAC30AD310ABA00D7
:100DA300010C8A2F8C308D3180BBE53D7003020E20
:100DB30080C3E54D9553E54E95544003020E80E5FF
:100DC30053C3954DF551E554954EF552AA51AE5284
:100DD300155174FFB551021552EA4E7003020E7A93
:100DE300758220120A5D80E4E53C24FDFE8E3C8E74
:100DF30001870209870309870619198A2F8B308E09
:100E030031AE31BE800040047B438014BE6000409D
:100E1300047B50800BBE400040047B4980027B581A
:100E23008B82C003120A5D75823A120A5D758230A5
:100E3300120A5D758278120A5DD003BB4902800BEA
:100E4300BB50028006853082120A9A852F82120ACD
:100E53009A802A75410175460A8022754608801DCD
:100E630075460A80187546108013754401800E85F7
:100E73005082120A5D8006855153855254E54460C1
:100E830060E53C24FCFE8E3C8E01875309875409A0
:100E9300875509875619191985532F855430855558
:100EA30031855632752F99753014753180852F53DE
:100EB30085305485315574012553FAE43554FBAE1E
:100EC300558A2F8B308E318553828554838555F017
:100ED300121179FEFB7003020B0A8B82120A5D80EA
:100EE300CCE5467003020B0AE542602BE53C14F99E
:100EF300893C87068E027B007D007E008A2F8B3023
:100F03008D318E32E5417064AA2FFBFDFE8A2F8B53
:100F1300308D318E328055E5436021E53C24FCFE63
:100F23008E3C8E0187020987030987050987061905
:100F330019198A2F8B308D318E328030E53C24FE97
:100F4300FE8E3C8E01870309870619EEFA3395E07E
:100F5300FDFE8B2F8A308D318E32E541700EAA2F24
:100F6300AB30FDFE8A2F8B308D318E32E54160230D
:100F7300E53230E71BC3E4952FFBE49530FCE495A1
:100F830031FDE49532FE8B2F8C308D318E32800310
:100F9300754100754501795C7D007E0075330085E0
:100FA3004682C006C005C001120AB1D001D005D0E7
:100FB30006E5457014E533C454F0FCE533C4540F1F
:100FC3004204E7FB4CF7198002A7330DBD00010E65
:100FD300E545B40100E433F545E52F45304531459A
:100FE3003270B9894C8D498E4AE553455470057565
:100FF3005301F554E53E702DE53D7029AA53AB54DA
:10100300AC490C7E00C3EC9AEE9B5015758220C050
:1010130003C002120A5DD002D0031ABAFF011B807B
:10102300DF8A538B54E541601175822D120A5D15D9
:101033005374FFB553021554802EE549454A602881
:10104300E53F601175822B120A5D155374FFB5538A
:101053000215548013E540600F758220120A5D1556
:101063005374FFB553021554E53D7033AD53AE547D
:101073008D038E041DBDFF011EC3E5499BE54A9CFC
:10108300503EE53E60067B307C0080047B207C0084
:101093008B82C006C005120A5DD005D00680D1C37D
:1010A300E5499553E54A9554500FE553C39549F5E2
:1010B30053E554954AF554800BE4F553F5548004F5
:1010C3008D538E54A94CAD49AE4A8D028E041DBD7D
:1010D300FF011EEA4C6030E545B40100E433F545F9
:1010E300700A09E7C4540FFC8C3380078704740F1C
:1010F3005CF533853382C006C005C001120A80D077
:1011030001D005D00680C3E53D7003020B0AAD5341
:10111300AE548D038E041DBDFF011EEB4C70030204
:101123000B0A758220C006C005120A5DD005D006E1
:1011330080E08F82120A5D020B0A85348285358333
:011143002289
:0B1499003C4E4F20464C4F41543E009B
:10114400AA82AB831211796003A380F8C3E5829A63
:10115400F582E5839BF58322E582851DF0A4C58293
:10116400C0F0851EF0A4D0F025F0C583851DF0A441
:051174002583F5832234
:0D00490075815C121195E58260030200468E
:1011790020F71430F6148883A88220F507E6A8839F
:1011890075830022E280F7E49322E022758200222F
:1011990020F71130F6138883A88220F509F6A88371
:0B11A9007583002280FEF280F5F0222A
:00000001FF
