:04000000020049327F
:01000B0032C2
:0100130032BA
:01001B0032B2
:0100230032AA
:01002B0032A2
:01003300329A
:01003B003292
:0300430002009028
:03008D0002004628
:030046000200CFE6
:10009000C021C0E0C0F0C082C083C007C006C00558
:1000A000C004C003C002C001C000C0D075D000129F
:1000B00008B0D0D0D000D001D002D003D004D005F9
:1000C000D006D007D083D082D0F0D0E0D0213275D6
:1000D000A15575A1AA53B9F843B90575A1009000BF
:1000E0000512018C1205B2D2AF900A0B75F0801286
:1000F000049F7E007F00C3EE940AEF6480948050DA
:100100001E900A1775F080C007C00612049F900069
:100110006412018CD006D0070EBE00DA0F80D7C261
:1001200081C280439A0890010BE060FAD284208457
:10013000FDAF9FE4FE3395E0FD8F828E838DF0123C
:100140000914AE82AF83900A1975F080C007C0060B
:1001500012049FD006D007EF3395E0FD8E828F8387
:100160008DF0120474900A2575F08012049F90039C
:06017000E812018C80B0D2
:100A0B00414443204578616D706C65002E00414474
:0B0A1B00432056616C75653A20000016
:10017600AE82AF83EE4F600D05A105A105A11EBE9F
:10018600FF011F80EF22AE82AF83EE4F6011E5C301
:1001960030E7FBE5C320E7FB1EBEFF011F80EB2215
:1001A6004396025397FD4396015397FE22AF827EF4
:1001B60008EF30E706D2B1A2B18004C2B1A2B1D233
:1001C600B080008000C2B01E8F05ED2DFFEE70E1FD
:1001D600D2B180008000D2B080008000C2B022C2BE
:1001E600B18000C2B00201B3D2B18000D2B0020128
:1001F600E5C2B18000D2B08000D2B122AF827E00CB
:10020600D2B17D088E04EC2CFE8000D2B030B10352
:10021600430601C2B0DDEDEF6002C2B1800080008E
:10022600D2B080008000C2B08E8222AF8275827802
:10023600C0071201E57582001201B3D00774B02F12
:10024600F5821201B37582001201B3758210120194
:10025600B30201F71202317582781201E575824008
:100266001201B37F80758200C0071201B3D007DF89
:10027600F40201F77F008F82C00712025AD0070FDF
:10028600BF080040F1900102E0FF900100F09001EC
:1002960001E4F0EF2FFF74075FF58202023190014F
:1002A60002E0F58212025A900102E0FF0F74075F26
:1002B600F07582781201E57582001201B37582D35A
:1002C6001201B3900102E0C40354F8F5821201B39F
:1002D6000201F71201A67582781201E575820012F5
:1002E60001B37F00EF900C0693F582C0071201B3AD
:1002F600D0070FBF0B0040EC1201F7900102E4F0AB
:1003060002027AAF827E00EF24E0FFEE34FFFEEFBA
:100316002FFCEE33FDEC2CFCED33FDEC2FFCED3E1B
:10032600FD758278C005C0041201E5758240120190
:10033600B3D004D0058C068D077D05EE2426F58204
:10034600EF340AF5830EBE00010FE493F582C00771
:10035600C006C0051201B3D005D006D007DDDC7596
:1003660082001201B30201F7AF8253077FBF20005C
:10037600403B8F82120309900101E02401F0E02442
:10038600EB400122900101E4F0900100E0FEBE077F
:10039600051202A48006900100EE04F0900102E02E
:1003A600FE900100E02E5407F582020231BF0A29B1
:1003B600900101E4F0900100E0FEBE07051202A4E0
:1003C6008006900100EE04F0900102E0FE9001002C
:1003D600E02E5407F582020231BF0D16900101E4AA
:1003E600F0900102E0FF900100E02F5407F5820231
:1003F600023122AD82AE83AFF08D828E838FF012F2
:1004060009EBFC60188C820DBD00010EC007C0060A
:10041600C00512036ED005D006D00780DC22120379
:07042600F975820A02036E62
:100A2600000000000000005F00000007000700143F
:100A36007F147F14242A7F2A1223130864623649FE
:100A46005522500004030000001C224100004122F0
:100A56001C0014083E081408083E080800806000C0
:100A6600000808080808006060000020100804025A
:100A76003E5149453E44427F4040426151494622EB
:100A8600414949361814127F102F494949313E49C8
:100A96004949320301710907364949493626494908
:100AA600493E003636000000806800000008142227
:100AB600001414141414002214080002015109062B
:100AC6003E415D555E7C1211127C7F494949363E96
:100AD600414141227F4141221C7F494949417F09C9
:100AE6000909013E4149493A7F0808087F41417F8B
:100AF60041412040413F017F081422417F40404050
:100B0600407F020C027F7F0408107F3E4141413E38
:100B16007F090909063E4141C1BE7F0919294626BA
:100B26004949493201017F01013F4040403F1F20B2
:100B360040201F3F4038403F631408146307087085
:100B460008076151494543007F41410002040810EE
:100B5600200041417F000804020408404040404014
:100B6600000003040020545454787F444444383829
:100B760044444428384444447F385454541808FEA6
:100B860009010218A4A4A4787F0404047800447D13
:100B960040000080847D00417F10284400417F4052
:100BA600007C047C04787C0404047838444444388B
:100BB600FC2424241818242424FC7C080404080893
:100BC60054545420043F4440203C4040403C1C20A8
:100BD60040201C3C4030403C44281028441CA0A027
:100BE600A07C4464544C4408083641410000FF0090
:100BF6000041413608080804081008FFFFFFFFFF00
:0B0C0600A83F8D142002DA12A1C8AF35
:10005C00C200900103E4F074C2A3F07401A3F0E4B5
:10006C00A3F0900107F0900108F09001097408F0DA
:10007C0090010AE4F090010BF090010CF090010D4E
:01008C00F083
:10042D0020001690010DE06010D20090010DE0F556
:10043D00D553D4FC90010DE4F022AF822000FD9045
:10044D00010DE0FE04F07D0074402EFEE43DFDEE56
:10045D002414F582ED3400F583EFF090010DE0FFEB
:10046D00BF400302042D22AD82AE83AFF08D828E8C
:10047D00838FF01209EBFC60188C820DBD00010E0C
:10048D00C007C006C005120447D005D006D00780AE
:10049D00DC2212047475820A12044702042D9001A5
:1004AD000BE060FA90010CE0FF04F0EF2414F582EC
:1004BD00E43400F583E0FF90010BE014FEF0EE70E4
:1004CD000353D4F38F82227E0A7F008EEE8FEF7E50
:1004DD00147F008EE48FE575D21275D41275EB0C76
:1004ED0075EA4075D30075D50090010BE4F0C2009C
:1004FD0022AF08BF20028036BF21028005BF223205
:10050D0080207F008F057E00EF2403F582E4340107
:10051D00F583E08D828E83F00FBF070040E6758274
:10052D000722900002E090010AF075820022758288
:10053D0000227582FF227420B5082D7F00C3E5DBF4
:10054D009407920140047E078002AEDBC3EF9E50FC
:10055D0017EF2403FDE43401FE8F82758300E0FC68
:10056D008D828E83F00F80D575DC402274FC55D4BE
:10057D004402F5D4C2002230DE17E5DB601374F3BC
:10058D0055D44408F5D490010BE5DBF090010CE453
:02059D00F0224A
:100C110012011001000000080912DD270001010284
:100C2100030109024B000201008032080B0002029D
:100C3100020104090400000102020104052400105C
:100C41000105240100000424020205240600010715
:100C510005810308000109040100020A00000407DC
:100C6100050202400000070582024000000403095A
:100C710004220355006E00690074002D0045006CCC
:100C81000065006300740072006F006E006900630C
:100C91000073001E035500530042005F00430044EF
:100CA1000043002D00530065007200690061006C73
:100CB1000038036700690074006800750062002E47
:100CC1000063006F006D002F0055006E0069007415
:100CD100002D0045006C0065006300740072006F18
:100CE100006E006900630073001603430044004373
:0F0CF100002000530065007200690061006C0074
:10059F007E007F008EEC8FED75DC0275DD00C202F0
:1005AF000204D475E22975D18112059F75E1077593
:1005BF00D81FD2EAD2AF22C0E0C007AF8205A29007
:1005CF00000015A2850E82850F83E493A3A5DFFAA1
:1005DF0085820E85830FD007D0E0227F0090000721
:1005EF00E0FD7E00900006E0FC7B004EF50CEB4D2D
:1005FF00F50D900001E0F508900000E0F509E50920
:10060F0054606003020810E508FE24F4500302084A
:10061F000CEEF5F0240B83F582E5F0241083F583BF
:10062F00E47330500CAB0CFF490C08252626070746
:10063F0008070806060807070808900003E0FEBE33
:10064F000102800ABE0202800FBE03688014750E7D
:10065F0011750F0C7F12805E750E23750F0C7F4B7B
:10066F008054900002E0FE24FB4038EE2E9006806E
:10067F00738008800E8014801A8020750E6E750F9F
:10068F000C8026750E72750F0C801E750E94750FEB
:10069F000C8016750EB2750F0C800E750EEA750F65
:1006AF000C8006750EB2750F0C850E82850F83E4D4
:1006BF0093FF80027FFFBFFF030208268F057E0096
:1006CF00C3ED950CEE950D50048D0C8E0DAD0CAE4B
:1006DF000DC3ED9408EE9400920340067D087E0052
:1006EF008004AD0CAE0D8D078F821205C602082651
:1006FF00900002E0F50B020826900000E50AF0AD2D
:10070F000CAE0DC374019DE49E5006750C01750D62
:10071F0000AF0C020826900002E0F50AD202020890
:10072F0026900000E4F0900001F0AD0CAE0DC37404
:10073F00029DE49E5006750C02750D00AF0C020869
:10074F0026E509541F701E900002E0FEBE011190B5
:10075F000C2AE493FE30E5030208267FFF020826E9
:10076F007FFF020826AD0953051F7E00BD0228BE7C
:10077F000025900004E0FEBE02028005BE821380B9
:10078F000653D47302082674BC55D44402F5D40220
:10079F0008267FFF0208267FFF020826E509541F5F
:1007AF007019900002E0FEBE010D900C2AE493FE3A
:1007BF0020E5647FFF80607FFF805CAD0953051FDC
:1007CF007E00BD0234BE0031900002E07027900021
:1007DF0004E0FEBE02028005BE8216800A747F55B9
:1007EF00D4440CF5D4803074BF55D44403F5D48071
:1007FF00267FFF80227FFF801E7FFF801A7FFF8072
:10080F0016AD095305607E00BD200ABE0007120415
:10081F00FEAF8280027FFFBFFF077508FF75DCCF39
:10082F00228F057E00AB0CAC0DEBC39DFBEC9EFC49
:10083F008B0C8C0D8FDD75DCC022AF08BF050280DD
:10084F003ABF0645AE0CAF0DC3EE9408EF9400927D
:10085F000440067E087F008004AE0CAF0D8E82121E
:10086F0005C68E057F00AB0CAC0DEBC39DFBEC9F5B
:10087F00FC8B0C8C0D8EDD63DC4022E5E35480FF96
:10088F00E50B4FF5E375DC822275DC8222AE09534E
:10089F0006607F00BE2006BF000302054375DC40E3
:1008AF002230D94FE5D9540FFFADD95305307E0013
:1008BF00BD0005BE00028027BD2005BE0002800BD3
:1008CF00BD302EBE002B1205EA8026BF0002800528
:1008DF00BF021E800512084980171205798012BFCA
:1008EF0000028005BF020A800512089C80031205D2
:1008FF0084C2D910DA02800030D80912059F75E33F
:05090F000075D81F2255
:06005600E478FFF6D8FD7E
:10091400AD82AE83AFF07B007C008D828E838FF03E
:100924001209EBFABA20028003BA09070DBD00EAE6
:100934000E80E78D008E018F028D828E838FF012E0
:1009440009EBFFE4BF2D0104F510BF2D028003BFA6
:100954002B0508B8000109880589068A078D828E4F
:10096400838FF01209EBFABA300092054046EA246C
:10097400C69205403F8B138C1490000AC007C00632
:10098400C0051209CE858211858312D005D006D008
:10099400078D828E838FF01209EBF8A3AD82AE83AC
:1009A4007A00E824D0F8EA34FFFAE82511FBEA35A6
:1009B40012FC80A9E5106009C3E49BFEE49CFF805F
:1009C400048B068C078E828F8322E5828513F0A424
:1009D400C582C0F08514F0A4D0F025F0C58385133A
:0709E400F0A42583F5832236
:0D004900758121120A07E58260030200465E
:1009EB0020F71430F6148883A88220F507E6A88335
:1009FB0075830022E280F7E49322E02275820022C5
:00000001FF
