:04000000020049327F
:01000B0032C2
:0100130032BA
:01001B0032B2
:0100230032AA
:01002B0032A2
:01003300329A
:01003B003292
:0300430002009028
:03008D0002004628
:030046000200CFE6
:10009000C021C0E0C0F0C082C083C007C006C00558
:1000A000C004C003C002C001C000C0D075D000129F
:1000B0000ACCD0D0D000D001D002D003D004D005DB
:1000C000D006D007D083D082D0F0D0E0D0213275D6
:1000D000A15575A1AA53B9F843B90575A1009000BF
:1000E0000512016F12018D1207CE12041490003216
:1000F000120429900C2375F0801206BB7F007E014C
:10010000750EF4750F017510C475110975123275ED
:1001100013008F82C007C00612058585820C858377
:100120000D758200120523D006D007EE600A0FBFBE
:10013000B400400C7E008008EF70047E0180011F37
:10014000900014C007C00612016FD006D00780B01F
:100C23005043413936383520496E696369616C69CF
:060C33007A61646F2100EC
:10015000AE82AF83EE4F6016E5A104F5A1E5A104E0
:10016000F5A1E5A104F5A11EBEFF011F80E622AEA8
:1001700082AF83EE4F60159003E8C007C0061201FE
:1001800050D006D0071EBEFF011F80E72243960213
:100190005397FD4396015397FE22AF827E08EF30BE
:1001A000E706D2B1A2B18004C2B1A2B1D2B0800040
:1001B0008000C2B01E8F05ED2DFFEE70E1D2B18040
:1001C000008000D2B080008000C2B022C2B18000A6
:1001D000C2B002019AD2B18000D2B00201CCC2B149
:1001E0008000D2B08000D2B122AF827E00D2B17D39
:1001F000088E04EC2CFE8000D2B030B1034306011F
:10020000C2B0DDEDEF6002C2B180008000D2B080EC
:10021000008000C2B08E8222AF82758278C0071241
:1002200001CC75820012019AD00774B02FF58212AA
:10023000019A75820012019A75821012019A0201C8
:10024000DE1202187582781201CC75824012019A72
:100250007F80758200C00712019AD007DFF4020187
:10026000DE7F008F82C007120241D0070FBF080057
:1002700040F1900102E0FF900100F0900101E4F0F4
:10028000EF2FFF74075FF582020218900102E0F57C
:1002900082120241900102E0FF0F74075FF0758245
:1002A000781201CC75820012019A7582D312019ADC
:1002B000900102E0C40354F8F58212019A0201DEB3
:1002C00012018D7582781201CC75820012019A7F1D
:1002D00000EF900E1993F582C00712019AD0070F14
:1002E000BF0B0040EC1201DE900102E4F00202615B
:1002F000AF827E00EF24E0FFEE34FFFEEF2FFCEE36
:1003000033FDEC2CFCED33FDEC2FFCED3EFD758256
:1003100078C005C0041201CC75824012019AD00445
:10032000D0058C068D077D05EE2439F582EF340C5F
:10033000F5830EBE00010FE493F582C007C006C02E
:100340000512019AD005D006D007DDDC75820012B7
:10035000019A0201DEAF8253077FBF2000403B8F2E
:10036000821202F0900101E02401F0E024EB400150
:1003700022900101E4F0900100E0FEBE07051202A8
:100380008B8006900100EE04F0900102E0FE9001E7
:1003900000E02E5407F582020218BF0A29900101DD
:1003A000E4F0900100E0FEBE070512028B8006908B
:1003B0000100EE04F0900102E0FE900100E02E54F6
:1003C00007F582020218BF0D16900101E4F09001BA
:1003D00002E0FF900100E02F5407F582020218228C
:1003E000AD82AE83AFF08D828E838FF0120C03FC52
:1003F00060188C820DBD00010EC007C006C005123A
:100400000355D005D006D00780DC221203E07582A8
:040410000A02035584
:100C3900000000000000002F00000007000700145A
:100C49007F147F14242A7F2A1223130864623649E9
:100C59005522500005030000001C224100004122DA
:100C69001C0014083E081408083E08080000A0608B
:100C79000008080808080060600000201008040245
:100C89003E5149453E00427F40004261514946215B
:100C990041454B311814127F1027454545393C4AC7
:100CA9004949300171090503364949493606494917
:100CB900291E00363600000056360000081422416D
:100CC90000141414141400412214080201510906D5
:100CD900324959513E7C1211127C7F494949363EAD
:100CE900414141227F4141221C7F494949417F09B4
:100CF9000909013E4149497A7F0808087F00417F77
:100D090041002040413F017F081422417F4040407B
:100D1900407F020C027F7F0408107F3E4141413E23
:100D29007F090909063E4151215E7F091929464675
:100D39004949493101017F01013F4040403F1F209E
:100D490040201F3F4038403F631408146307087070
:100D590008076151494543007F41410002040810D9
:100D6900200041417F00040201020440404040400C
:100D7900000102040020545454787F484444383810
:100D890044444420384444487F3854545418087E15
:100D990009010218A4A4A47C7F0804047800447DF6
:100DA90040004080847D007F1028440000417F403E
:100DB900007C041804787C080404783844444438D6
:100DC900FC2424241818242418FC7C08040408484A
:100DD90054545420043F4440203C4040207C1C2073
:100DE90040201C3C4030403C44281028441CA0A012
:100DF900A07C4464544C44083641410000007F0003
:100E09000000414136080804081008FFFFFFFFFFF2
:0B0E1900A83F8D142002DA12A1C8AF20
:100414007582801201CC75820012019A75820012D5
:10042400019A0201DEAE82AF838E1C8F1D751E0001
:10043400751F009017D7E4F5F0120B30AC82AD8332
:10044400AEF0FF1CBCFF091DBDFF051EBEFF011F52
:10045400758280C0041201CC75820012019A7582E3
:10046400811201D57582001201E9AF82D004C00760
:10047400C0041201DED004D007747F5F4410FE75FF
:100484008280C007C006C0041201CC75820012012C
:100494009AD004D0068E82C00412019A1201DE752D
:1004A40082801201CC7582FE12019AD0048C8212D1
:1004B400019A1201DE7582801201CC75820012014C
:1004C4009AD0078F82C00712019A1201DE900005AC
:1004D40012016F7582801201CC75820012019AD0CC
:1004E4000774A04FF58212019A0201DEE58225828B
:1004F40025E02406FF758280C0071201CCD0078F47
:100504008212019A85088212019A85098212019A3F
:10051400850A8212019A850B8212019A0201DEAFCA
:1005240082E50C450D700EF508F509F50A750B10FA
:100534008F820204F0C3E50C94FFE50D94FF401094
:10054400750800750910E4F50AF50B8F820204F0B2
:10055400AB0CAC0DE4FDECCDC454F0CDC4CD6DCDED
:1005640054F0CD6DFEEBC4540F4DFDEBC454F08D2F
:10057400038E048B0A8C0BE4F508F5098F820204C0
:10058400F0E582FF244B50027FB4E510C3950EFDC5
:10059400E511950FFE7C007B008F1C8C1D8C1E8C3E
:1005A4001F8D828E838CF0EB120B95AC82AD83AEE3
:1005B400F0FF751CB4E4F51DF51EF51F8C828D83C8
:1005C4008EF0EF120B30AC82AD83AEF0FFA80EA913
:1005D4000FE4FAFBEC28FCED39FDEE3AFEEF3BFFAD
:1005E40085121C85131D8B1E8B1F90424075F00FC6
:1005F400E4C007C006C005C004120B30A882A9835A
:10060400AAF0FBD004D005D006D0078C1C8D1D8E1B
:100614001E8F1F90FFFFE4F5F0C003C002C001C0AD
:1006240000120B95AC82AD83AEF0FFD000D001D0A8
:1006340002D003881C891D8A1E8B1F8C828D838E99
:05064400F0EF020B3095
:10005C00C200900103E4F074C2A3F07401A3F0E4B5
:10006C00A3F0900107F0900108F09001097408F0DA
:10007C0090010AE4F090010BF090010CF090010D4E
:01008C00F083
:1006490020001690010DE06010D20090010DE0F538
:10065900D553D4FC90010DE4F022AF822000FD9027
:10066900010DE0FE04F07D0074402EFEE43DFDEE38
:100679002414F582ED3400F583EFF090010DE0FFCD
:10068900BF400302064922AD82AE83AFF08D828E50
:10069900838FF0120C03FC60188C820DBD00010ED3
:1006A900C007C006C005120663D005D006D0078072
:1006B900DC2212069075820A12066302064990012D
:1006C9000BE060FA90010CE0FF04F0EF2414F582CE
:1006D900E43400F583E0FF90010BE014FEF0EE70C6
:1006E9000353D4F38F82227E0A7F008EEE8FEF7E32
:1006F900147F008EE48FE575D21275D41275EB0C58
:1007090075EA4075D30075D50090010BE4F0C2007D
:1007190022AF14BF20028036BF21028005BF2232DA
:1007290080207F008F057E00EF2403F582E43401E9
:10073900F583E08D828E83F00FBF070040E6758256
:100749000722900002E090010AF07582002275826A
:1007590000227582FF227420B5142D7F00C3E5DBCA
:100769009407920140047E078002AEDBC3EF9E50DE
:1007790017EF2403FDE43401FE8F82758300E0FC4A
:100789008D828E83F00F80D575DC402274FC55D4A0
:100799004402F5D4C2002230DE17E5DB601374F39E
:1007A90055D44408F5D490010BE5DBF090010CE435
:0207B900F0222C
:100E240012011001000000080912DD27000101026F
:100E3400030109024B000201008032080B00020288
:100E44000201040904000001020201040524001047
:100E54000105240100000424020205240600010700
:100E640005810308000109040100020A00000407C7
:100E74000502024000000705820240000004030945
:100E840004220355006E00690074002D0045006CB7
:100E94000065006300740072006F006E00690063F7
:100EA4000073001E035500530042005F00430044DA
:100EB4000043002D00530065007200690061006C5E
:100EC4000038036700690074006800750062002E32
:100ED4000063006F006D002F0055006E0069007400
:100EE400002D0045006C0065006300740072006F03
:100EF400006E00690063007300160343004400435E
:0F0F0400002000530065007200690061006C005E
:1007BB007E007F008EEC8FED75DC0275DD00C202D2
:1007CB000206F075E22975D1811207BB75E1077539
:1007DB00D81FD2EAD2AF22C0E0C007AF8205A290E9
:1007EB00000015A2851A82851B83E493A3A5DFFA6B
:1007FB0085821A85831BD007D0E0227F00900007EB
:10080B00E0FD7E00900006E0FC7B004EF518EB4D02
:10081B00F519900001E0F514900000E0F515E515D1
:10082B0054606003020A2CE514FE24F45003020A00
:10083B0028EEF5F0240B83F582E5F0241083F58385
:10084B00E4734C6C28C7281B6528244142420909D4
:10085B000A090A09080A09090A0A900003E0FEBE00
:10086B000102800ABE0202800FBE03688014751A53
:10087B0024751B0E7F12805E751A36751B0E7F4B0F
:10088B008054900002E0FE24FB4038EE2E90089C32
:10089B00738008800E8014801A8020751A81751B56
:1008AB000E8026751A85751B0E801E751AA7751B73
:1008BB000E8016751AC5751B0E800E751AFD751BED
:1008CB000E8006751AC5751B0E851A82851B83E46F
:1008DB0093FF80027FFFBFFF03020A428F057E005A
:1008EB00C3ED9518EE951950048D188E19AD18AEF1
:1008FB0019C3ED9408EE9400920340067D087E0028
:10090B008004AD18AE198D078F821207E2020A42DE
:10091B00900002E0F517020A42900000E516F0ADD8
:10092B0018AE19C374019DE49E5006751801751914
:10093B0000AF18020A42900002E0F516D202020A3A
:10094B0042900000E4F0900001F0AD18AE19C374B2
:10095B00029DE49E5006751802751900AF18020A25
:10096B0042E515541F701E900002E0FEBE0111906F
:10097B000E3DE493FE30E503020A427FFF020A427A
:10098B007FFF020A42AD1553051F7E00BD0228BE34
:10099B000025900004E0FEBE02028005BE8213809B
:1009AB000653D473020A4274BC55D44402F5D402E4
:1009BB000A427FFF020A427FFF020A42E515541FDB
:1009CB007019900002E0FEBE010D900E3DE493FE07
:1009DB0020E5647FFF80607FFF805CAD1553051FB2
:1009EB007E00BD0234BE0031900002E07027900003
:1009FB0004E0FEBE02028005BE8216800A747F559B
:100A0B00D4440CF5D4803074BF55D44403F5D48052
:100A1B00267FFF80227FFF801E7FFF801A7FFF8053
:100A2B0016AD155305607E00BD200ABE00071207E8
:100A3B001AAF8280027FFFBFFF077514FF75DCCFF3
:100A4B00228F057E00AB18AC19EBC39DFBEC9EFC13
:100A5B008B188C198FDD75DCC022AF14BF0502809B
:100A6B003ABF0645AE18AF19C3EE9408EF94009247
:100A7B000440067E087F008004AE18AF198E8212E8
:100A8B0007E28E057F00AB18AC19EBC39DFBEC9F07
:100A9B00FC8B188C198EDD63DC4022E5E35480FF60
:100AAB00E5174FF5E375DC822275DC8222AE155318
:100ABB0006607F00BE2006BF000302075F75DC40A7
:100ACB002230D94FE5D9540FFFADD95305307E00F5
:100ADB00BD0005BE00028027BD2005BE0002800BB5
:100AEB00BD302EBE002B1208068026BF00028005EB
:100AFB00BF021E8005120A6580171207958012BF70
:100B0B0000028005BF020A8005120AB88003120793
:100B1B00A0C2D910DA02800030D8091207BB75E3E6
:100B2B000075D81F22FB7A20E4FCFDFEFFE5822531
:100B3B0082F582E58333F583E5F033F5F0EB33FB98
:100B4B004017DAE98042E5822582F582E58333F5A9
:100B5B0083E5F033F5F0EB33FBEC33FCED33FDEEDB
:100B6B0033FEEF33FFEC951CED951DEE951EEF95C7
:100B7B001F4013EC951CFCED951DFDEE951EFEEF35
:0A0B8B00951FFF438201DABEEB2242
:06005600E478FFF6D8FD7E
:100B9500AAF0FBE582851CF0A4FCADF0E583851C7D
:100BA500F0A42DFDE435F0FEE582851DF0A42DFDB4
:100BB500E5F03EFEE433FFEA851CF0A42EFEE5F0E9
:100BC5003FFFE583851DF0A42EFEE5F03FFFE5829E
:100BD500851EF0A42EFEE5F03FFFEB851CF0A42F4B
:100BE500FFEA851DF0A42FFFE583851EF0A42FFFE6
:0E0BF500E582851FF0A42F8EF08D838C822266
:0D004900758121120C1FE582600302004644
:100C030020F71430F6148883A88220F507E6A8831A
:100C130075830022E280F7E49322E02275820022AA
:00000001FF
